:020000040000FA
:04000000FEEF17F008
:100F45000100010001C58AC5881200C586C4EC07E9
:100F5500F01200C582C4EC07F01200C580C4EC078E
:100F6500F01200C584C4EC07F01200A8EC07F0A548
:100F7500EC07F0C9501200016E01C0C9FFC4EC07AF
:100F8500F012009EA6C9EF07F0CBEF07F0C4EF07FC
:100F9500F09E9612000F0EC16E1E0E936EF19E818D
:100FA50050E009816E120094869488280EC66E3131
:100FB5000EC86EC79CC78E9E96A1961200016E9EA6
:100FC500A8E7EF07F0E9EF07F0E2EF07F09E9801D9
:100FD500C0ADFF1200096E000E016E085096EC08B8
:100FE500F0010E016E095096EC08F01200F42FF195
:100FF5002FE22FE52FE82FEB2FEE2FF72FDF2FBD59
:101005002F852FC62FD02FC08EC08AC098C096C0FE
:1010150090C082C094C292C19AC198C46AC36AC280
:10102500801200CDEC07F0C3EC0AF006EC08F031B5
:10103500EC08F0D6EC07F018EC09F0576A12000935
:101045006EB0EC07F0D00EBEEC07F00950BEEC0711
:10105500F00850BEEC07F0B4EC07F01200948E9443
:101065009CAC9CAC8AAC98AC96AC84AB8EAB9CAB80
:1010750088B896810EAF6E9E989E9A120001500315
:1010850002F3CF05F0F4CF06F001500402F3500649
:101095002602500302F350062605C001F006C002E1
:1010A500F01200026EB0EC07F0D00EBEEC07F002B5
:1010B50050BEEC07F0ACEC07F0D10EBEEC07F0B873
:1010C500EC07F0036EB4EC07F003501200026EB0AB
:1010D500EC07F0A00EBEEC07F00250BEEC07F0AC3A
:1010E500EC07F0A10EBEEC07F0B8EC07F0036EB408
:1010F500EC07F003501200026E02C0A9FF01C0A860
:10110500FFA69EA69CA684F29E550EA76EAA0EA7C4
:101115006EA682F28EA1A892EF08F094EF08F08DEA
:10112500EF08F0A1981200026E01B09CEF08F09F45
:10113500EF08F08282A0EF08F0829202C083FF825E
:10114500848294958E828082928284829483BEAEBC
:10115500EF08F0B0EF08F0A7EF08F08290959E1227
:10116500000B6EB0EC07F0A00EBEEC07F00B50BE06
:10117500EC07F00850BEEC07F0B4EC07F00B0E0AD4
:101185006EB80E096E0906D8A00A06092806E10AF6
:1011950028D8A4D0EF08F0D2EF08F0C5EF08F01278
:1011A50000000E0D6E000E0C6E000E106E0A0E0F76
:1011B5006E0F5069EC08F00E6E0EC008F00C50B3BF
:1011C500EC08F00C4A0D2A0F4A102A105009E16468
:1011D5000E0F5CD8A0F1EF08F0F3EF08F0DBEF0895
:1011E500F05A0E1200076E07C003F0D8900336D8E8
:1011F500900336C250C30B0310C26EC282C2B20640
:10120500EF09F008EF09F001EF09F0C350C4CF036F
:10121500F0046A03C004F0036A0310056E04500667
:101225006E05C001F006C002F01200000E54EC0875
:10123500F00A6E0A508009086E000E22EC08F002D2
:101245000E54EC08F00A6E0A504009086E020E2290
:10125500EC08F0930E086E070E22EC08F0000E5411
:10126500EC08F00A6E0A507F0B086E000E22EC089F
:10127500F0120052EF09F002C0F6FF03C0F7FFF8C5
:101285006A050EF76403D00800F55005D0F6CFE9DE
:10129500FFF7CFEAFFEF50E1EC07F0024A032A021D
:1012A500C0F6FF03C0F7FFF86A050EF76403D00820
:1012B50000F55005D0F6CFE9FFF7CFEAFFEF500074
:1012C50009D8A468EF09F06AEF09F03EEF09F012BA
:1012D50000F20EF66E0F0EF76E000EF86E00EE6061
:1012E500F010EE1AF00900F5CFEEFFE550E150FAE7
:1012F500E1450EF66E0F0EF76E000EF86E00EE5A13
:10130500F010EE05F00900F5CFEEFFE550E150FADB
:10131500E100EE7AF00F0EEE6AE806FDE100EE342C
:10132500F0260EEE6AE806FDE1000EF86E00016596
:10133500EF0DF003500410D8B4A3EF09F0A5EF09A1
:10134500F0C9EF09F0010E056EADEF09F0D8900375
:10135500360436052A04AEB2EF09F0B4EF09F0A958
:10136500EF09F00350015C04500258D8A0BDEF0905
:10137500F0BFEF09F0C3EF09F00350015E0450021E
:101385005AD89004320332052EB4EF09F001C0019A
:10139500F002C002F01200000E016E055096EC0836
:1013A500F0EBEF09F0010E016E03C0F6FF04C0F784
:1013B500FFF86A050EF76403D00800F55005D0F66E
:1013C500CFE9FFF7CFEAFFEF5096EC08F0034A04A8
:1013D5002A03C0F6FF04C0F7FFF86A050EF7640399
:1013E500D00800F55005D0F6CFE9FFF7CFEAFFEFBB
:1013F500500009D8A401EF0AF003EF0AF0D5EF0970
:10140500F01200016E0104D8A40BEF0AF00DEF0AEB
:10141500F030EF0AF0E8EC0DF0586E5828D8B41605
:10142500EF0AF018EF0AF024EF0AF05E50D8B41E68
:10143500EF0AF020EF0AF024EF0AF05E6A58503DFB
:10144500EF0AF05828D8A42AEF0AF02CEF0AF03C4E
:10145500EF0AF0010E5E6E3CEF0AF00150D8A4369B
:10146500EF0AF038EF0AF03CEF0AF0E8EC0DF03D3A
:10147500EF0AF0FF0E1200000E066E000E056E0359
:10148500500410D8B449EF0AF04BEF0AF073EF0A95
:10149500F0010E076E53EF0AF0D8900336043607B5
:1014A5002A04AE58EF0AF05AEF0AF04FEF0AF0D8C7
:1014B50090053606360350015C04500258D8A066E4
:1014C500EF0AF068EF0AF06DEF0AF00350015E04D1
:1014D50050025A0580D89004320332072E5AEF0A7B
:1014E500F005C001F006C002F0120046504710D8C2
:1014F500A47FEF0AF081EF0AF08BEF0AF0920E035A
:101505006E2F0E046E800E056ECEEC09F093EF0A79
:10151500F02E0E036E2F0E046E800E056ECEEC09B6
:10152500F0720E036E2F0E046EC00E056ECEEC0922
:10153500F0400E066E420E076E0F0E086E000E0985
:101545006E0606000E075A085A095A06280AE107C8
:101555002808E1082806E10928D8A4B4EF0AF0B65E
:10156500EF0AF0A3EF0AF0010E576E000E016E01AF
:101575000E96EC08F0000E476E000E466E536A128A
:1015850000956A9450F80B946E8290C30E036ECD4D
:101595000EE82EFED7032EFCD70000000E016E3399
:1015A5000E96EC08F01B0E036E9E0EE82EFED7037A
:1015B5002EFCD700D0000E016E330E96EC08F0A677
:1015C5000EE82EFED700D0000E016E330E96EC0805
:1015D500F000D000D00000000E016E020E96EC085F
:1015E500F0A60EE82EFED700D0000E016E380E963E
:1015F500EC08F0A60EE82EFED700D0000E016E0115
:101605000E96EC08F0040E036E3E0EE82EFED70390
:101615002EFCD7000E016E0C0E96EC08F0A60EE817
:101625002EFED700D01200046E000E066E000E05C9
:101635006E000E086E000E076E020E07180810D811
:10164500B427EF0BF029EF0BF033EF0BF0050E0786
:10165500180810D8A431EF0BF033EF0BF03BEF0B6C
:10166500F007507A0FD96EDA6A3A0EDF6E62EF0B29
:10167500F0080E07180810D8B443EF0BF045EF0B30
:10168500F04FEF0BF00B0E07180810D8A44DEF0B19
:10169500F04FEF0BF057EF0BF007507A0FD96EDADA
:1016A5006A200EDF6E62EF0BF007507A0FD96EDA03
:1016B5006A0550042469EC08F0DF6E054A062A071E
:1016C5004A082A08BE70EF0BF0085009E10E0E0714
:1016D5005CD8A070EF0BF072EF0BF01FEF0BF00072
:1016E50001886B1200C00E086E50C001F051C00297
:1016F500F0000E046E0A0E036E3EEC0AF001503047
:101705000FEDEC07F0C10E086E50C001F051C0029C
:10171500F0000E046E0A0E036E9CEC09F0015030C9
:101725000FEDEC07F0C20E086E3A0EEDEC07F0C3B4
:101735000E086E4EC001F04FC002F0000E046E0A96
:101745000E036E3EEC0AF00150300FEDEC07F0C4CD
:101755000E086E4EC001F04FC002F0000E046E0A76
:101765000E036E9CEC09F00150300FEDEC07F0C54F
:101775000E086E3A0EEDEC07F0C60E086E4CC00171
:10178500F04DC002F0000E046E0A0E036E3EEC0A28
:10179500F00150300FEDEC07F0C70E086E4CC0019C
:1017A500F04DC002F0000E046E0A0E036E9CEC09AB
:1017B500F00150300FEDEC07F0120046504710D8FD
:1017C500A4E7EF0BF0E9EF0BF0F9EF0BF0F10E02E8
:1017D5006E2E0E036E3CEC09F0920E036E2F0E0476
:1017E5006E800E056ECEEC09F035EF0CF03F0E0362
:1017F5006E2F0E046E800E056ECEEC09F0090E02FA
:101805006E2F0E036E3CEC09F0000E0E6E000E0DF1
:101815006E29EF0CF00D50300FE1EC07F0DA0E02F7
:101825006E2F0E036E3CEC09F00D500A0DF35016A9
:10183500EC0BF07A0E026E036A3CEC09F0060E0220
:101845006E2F0E036E3CEC09F00D4A0E2A46500D24
:101855001807E147500E18D8A433EF0CF035EF0CFC
:10186500F00DEF0CF0720E036E2F0E046EC00E0518
:101875006ECEEC09F0400E096E420E0A6E0F0E0B8D
:101885006E000E0C6E0906000E0A5A0B5A0C5A0908
:10189500280AE10A2808E10B2806E10C28D8A456F5
:1018A500EF0CF058EF0CF045EF0CF0010E576E0001
:1018B5000E016E010E96EC08F01200020E54EC08B3
:1018C500F03B6E010E54EC08F03C6E000E54EC0833
:1018D500F03D6E3BAC71EF0CF073EF0CF095EF0C37
:1018E500F03BC007F0073A0F0E0716010E07160763
:1018F50050506E516A50C001F051C002F0000E0404
:101905006E0A0E036E41EC08F001C050F002C051A2
:10191500F03BC007F00F0E071607505026000E517A
:1019250022A1EF0CF03BC007F0073A0F0E07160394
:101935000E07160750506E516A7DEF0CF03CC0073C
:10194500F0073A0F0E07160F0E071607504E6E4F8B
:101955006A4EC001F04FC002F0000E046E0A0E037D
:101965006E41EC08F001C04EF002C04FF03CC007DC
:10197500F00F0E071607504E26000E4F223DC007EA
:10198500F0073A0F0E07160F0E071607504C6E4D4F
:101995006A4CC001F04DC002F0000E046E0A0E0341
:1019A5006E41EC08F001C04CF002C04DF03DC0079F
:1019B500F00F0E071607504C26000E4D2212002A76
:1019C500342B34316E3150D8A4EBEF0CF0EDEF0C25
:1019D500F0F7EF0CF0000E286E000E296E000E2AAF
:1019E5006E000E2B6E64EF0DF028C02CF029C02D73
:1019F500F02AC02EF02BC02FF0200E07EF0DF0D8E7
:101A0500902F322E322D322C32E82E02EF0DF02C93
:101A150050306E2A8EFF0E2816FF0E2916FF0E2A4D
:101A250016000E2B16960E315E31BE1EEF0DF01C04
:101A3500EF0DF034EF0DF03150800A970FD8B02636
:101A4500EF0DF028EF0DF02AEF0DF0EDEF0CF0D8CB
:101A5500902B322A3229322832313E2AEF0DF04CB2
:101A6500EF0DF01F0E31643AEF0DF03CEF0DF04431
:101A7500EF0DF0EDEF0CF0D890283629362A362BED
:101A85003631063150D8A44AEF0DF04CEF0DF03E3B
:101A9500EF0DF03050D8B452EF0DF054EF0DF05C6F
:101AA500EF0DF02B1E2A1E291E286C000E29222A56
:101AB500222B2228C028F029C029F02AC02AF02B81
:101AC500C02BF0120014EC08F04F0E016E060E7ECE
:101AD500EC08F04E0E016E070E7EEC08F0010E04C8
:101AE500EC0AF0596E040EF5EC08F001C048F0025E
:101AF500C049F0140E136EAE0E146E230E156E4112
:101B05000E166E48C001F049C002F0036A046A006F
:101B15000E30EC0FF001C00FF002C010F003C01141
:101B2500F004C012F0B0EC15F00FC028F010C02979
:101B3500F011C02AF012C02BF0E2EC0CF028C04ADC
:101B4500F029C04BF060EC0CF0C1EF0DF0E4EC11A6
:101B5500F071EF0DF032EC14F071EF0DF0F6EC10C2
:101B6500F071EF0DF0E0EC0BF071EF0DF078EC0A91
:101B7500F071EF0DF0F9EC12F071EF0DF0575032F6
:101B85006E336A3350000AD8B4CBEF0DF071EF0D08
:101B9500F03250000AD8B4A9EF0DF0010AD8B4AD5F
:101BA500EF0DF0030AD8B4B1EF0DF0010AD8B4BDBA
:101BB500EF0DF0070AD8B4B5EF0DF0010AD8B4B9A6
:101BC500EF0DF071EF0DF0FEEF17F0819A818C812A
:101BD5008E81B2F0EF0DF0F2EF0DF0F5EF0DF001A3
:101BE5000E6BEF0EF081B4FAEF0DF0FCEF0DF0FF88
:101BF500EF0DF0040E6BEF0EF081B604EF0EF0065C
:101C0500EF0EF009EF0EF0070E6BEF0EF081B80E38
:101C1500EF0EF010EF0EF013EF0EF00A0E6BEF0E55
:101C2500F0818A819C818E81B21BEF0EF01DEF0E33
:101C3500F020EF0EF0020E6BEF0EF081B425EF0EE3
:101C4500F027EF0EF02AEF0EF0050E6BEF0EF08188
:101C5500B62FEF0EF031EF0EF034EF0EF0080E6BED
:101C6500EF0EF081B839EF0EF03BEF0EF03EEF0EC0
:101C7500F00B0E6BEF0EF0818A818C819E819E8127
:101C8500B247EF0EF049EF0EF04CEF0EF0030E6B7E
:101C9500EF0EF081B451EF0EF053EF0EF056EF0E4C
:101CA500F0060E6BEF0EF081B65BEF0EF05DEF0EFA
:101CB500F060EF0EF0090E6BEF0EF081B865EF0ED8
:101CC500F067EF0EF06AEF0EF00C0E6BEF0EF0FF03
:101CD5000E1200464A472A475009E10B0E465CD8CA
:101CE500A077EF0EF079EF0EF081EF0EF0000E47C2
:101CF5006E0A0E466E5350D3EC08F0536E11C001B8
:101D0500F012C002F0000E046E0A0E036E3EEC0ADD
:101D1500F00150300F086E5350B3EC08F011C001BC
:101D2500F012C002F0000E046E0A0E036E9CEC0960
:101D3500F00150300F086E5328B3EC08F013C001C2
:101D4500F014C002F0000E046E0A0E036E3EEC0A9B
:101D5500F00150300F086E5350020FB3EC08F0132A
:101D6500C001F014C002F0000E046E0A0E036E9C52
:101D7500EC09F00150300F086E5350030FB3EC0817
:101D8500F015C001F016C002F0000E046E0A0E0335
:101D95006E3EEC0AF00150300F086E5350040FB33D
:101DA500EC08F015C001F016C002F0000E046E0A32
:101DB5000E036E9CEC09F00150300F086E53500570
:101DC5000FB3EC08F017C0F6FF18C0F7FF0800F5D1
:101DD500CF08F05350060FB3EC08F0010E17241B83
:101DE5006E000E18201C6E1BC0F6FF1CC0F7FF0806
:101DF50000F5CF08F05350070FB3EC08F019C001F8
:101E0500F01AC002F0000E046E0A0E036E3EEC0AD4
:101E1500F00150300F086E5350080FB3EC08F0195D
:101E2500C001F01AC002F0000E046E0A0E036E9C8B
:101E3500EC09F00150300F086E5350090FB3EC0850
:101E4500F00A0E46184710D8B42BEF0FF02DEF0F00
:101E5500F02FEF0FF00A0E53261200096E0950D825
:101E6500B437EF0FF039EF0FF05BEF0FF004BE4022
:101E7500EF0FF03EEF0FF05BEF0FF001C005F00242
:101E8500C006F003C007F004C008F0051E061E07D3
:101E95001E081E052A000E06220722082205C00B71
:101EA500F006C00CF007C00DF008C00EF063EF0F90
:101EB500F001C00BF002C00CF003C00DF004C00E21
:101EC500F00150021003100410D8A46CEF0FF06E4F
:101ED500EF0FF078EF0FF0000E016E000E026E00AE
:101EE5000E036E000E046E09EF10F0960E0A6E8258
:101EF500EF0FF00A2AD8900E320D320C320B320059
:101F05000E0B14056E000E0C14066E000E0D140754
:101F15006EFE0E0E14086E0550061007100810D838
:101F2500A497EF0FF099EF0FF07CEF0FF0A7EF0FED
:101F3500F00A2A010E0B26000E0C220D220E22D8C5
:101F4500900E320D320C320B32000E0B14056E0062
:101F55000E0C14066E000E0D14076EFF0E0E1408FF
:101F65006E0550061007100810D8A4BCEF0FF0BE80
:101F7500EF0FF09BEF0FF0C6EF0FF00A06D8900BAE
:101F8500360C360D360E360DBECBEF0FF0CDEF0FFE
:101F9500F0D5EF0FF0020E0A60D3EF0FF0D5EF0F7B
:101FA500F0C0EF0FF00AB0DAEF0FF0DCEF0FF0DD65
:101FB500EF0FF00D9ED8900A320AC005F0066A07A9
:101FC5006A086A05C008F0076A066A056A05500BC3
:101FD5001206500C1207500D1208500E120950D857
:101FE500B4F7EF0FF0F9EF0FF001EF10F004BE00BA
:101FF500EF10F0FEEF0FF001EF10F00E8E0BC001A9
:10200500F00CC002F00DC003F00EC004F01200C6C3
:102015000E086E3A0EEDEC07F0C90E086E3A0EED9D
:10202500EC07F034C00CF035C00DF036C00EF037BB
:10203500C00FF0342A000E3522362237220F500EFB
:10204500100BE12D0E0C5C010E0D58D8A02DEF10D4
:10205500F02FEF10F07DEF10F03750361009E158F2
:102065000E345C020E3558D8B03BEF10F03DEF1042
:10207500F07DEF10F063EF10F0C40E086E200EED4A
:10208500EC07F0C50E086E200EEDEC07F0F5EF102D
:10209500F0C70E086E200EEDEC07F0C80E086E2096
:1020A5000EEDEC07F0F5EF10F0CA0E086E200EED00
:1020B500EC07F0CB0E086E200EEDEC07F0F5EF10F7
:1020C500F00AC00CF00BC00DF00D50000AD8B46E2C
:1020D500EF10F0F5EF10F00C50010AD8B43FEF10F7
:1020E500F0030AD8B44BEF10F0010AD8B457EF103B
:1020F500F0F5EF10F0375036100BE1590E345C0255
:102105000E3558D8A089EF10F08BEF10F095EF1031
:10211500F0000E346E000E356E000E366E000E3772
:102125006EF5EF10F0C40E086E44C001F045C00214
:10213500F0000E046E0A0E036E3EEC0AF0015030FC
:102145000FEDEC07F0C50E086E44C001F045C00266
:10215500F0000E046E0A0E036E9CEC09F00150307F
:102165000FEDEC07F0C70E086E42C001F043C00248
:10217500F0000E046E0A0E036E3EEC0AF0015030BC
:102185000FEDEC07F0C80E086E42C001F043C00227
:10219500F0000E046E0A0E036E9CEC09F00150303F
:1021A5000FEDEC07F0CA0E086E40C001F041C00209
:1021B500F0000E046E0A0E036E3EEC0AF00150307C
:1021C5000FEDEC07F0CB0E086E40C001F041C002E8
:1021D500F0000E046E0A0E036E9CEC09F0015030FF
:1021E5000FEDEC07F0120046504710D8A4FDEF1094
:1021F500F0FFEF10F035EF11F0920E036E2F0E0485
:102205006E800E056ECEEC09F0720E036E2F0E0475
:102215006EC00E056ECEEC09F0400E0A6E420E0B36
:102225006E0F0E0C6E000E0D6E0A06000E0B5A0C8C
:102235005A0D5A0A280AE10B2808E10C2806E10D77
:1022450028D8A428EF11F02AEF11F017EF11F001AB
:102255000E576E000E016E010E96EC08F0E3EF11BD
:10226500F0E3EF11F0500E036E2F0E046E800E0595
:102275006ECEEC09F05928D8A443EF11F045EF11C3
:10228500F062EF11F05C505D10D8B44CEF11F04ED8
:10229500EF11F062EF11F0C00E086E3E50300FEDF9
:1022A500EC07F0000E16EC0BF07A0E036E046AC212
:1022B5000E056ECEEC09F0000E5D6E000E5C6E59DB
:1022C50004D8A468EF11F06AEF11F090EF11F03E19
:1022D500503F10D8B471EF11F073EF11F078EF1192
:1022E500F03E06D8A03F067CEF11F0000E3F6E00D1
:1022F5000E3E6EC00E086E3E50300FEDEC07F03E00
:10230500500A0DF35016EC0BF07A0E036E046AC2F8
:102315000E056ECEEC09F0E3EF11F0020E5918D858
:10232500A497EF11F099EF11F0CBEF11F03F5007A3
:10233500E1090E3E5CD8B0A2EF11F0A4EF11F0A8B0
:10234500EF11F03E4A3F2AACEF11F0000E3F6E0947
:102355000E3E6E46503E1807E147503F18D8A4B6CA
:10236500EF11F0B8EF11F0BEEF11F0FF0E46243E6D
:102375006EFF0E47203F6EC00E086E3E50300FEDCB
:10238500EC07F03E500A0DF35016EC0BF087EF11F9
:10239500F00C0E5918D8A4D2EF11F0D4EF11F03388
:1023A500EF11F0010E576E000E016E010E96EC084E
:1023B500F0000E5D6E010E5C6E000E3F6E000E3E6F
:1023C5006E12000B0E5918D8A4EBEF11F0EDEF11BA
:1023D500F0F6EF11F0000E016E010E96EC08F0011B
:1023E5000E576EF8EF12F0610E036E2F0E046E801D
:1023F5000E056ECEEC09F075EC0BF05928D8B40635
:10240500EF12F008EF12F096EF12F05904D8A40E6F
:10241500EF12F010EF12F039EF12F0010E546E5674
:102425002A070E566419EF12F01BEF12F01EEF1279
:10243500F0546A070E566E5550D8B424EF12F026A4
:10244500EF12F028EF12F0010E566E5650020DF302
:1024550050600FD96EDA6ADECF03F0DDCF04F0CA23
:102465000E056ECEEC09F0556AA4EF12F0020E5976
:1024750018D8A440EF12F042EF12F073EF12F001FA
:102485000E546E56065628D8A44BEF12F04DEF1297
:10249500F051EF12F0546A566A63EF12F05650D8B5
:1024A500B457EF12F059EF12F061EF12F05550D812
:1024B500B45FEF12F061EF12F063EF12F0010E5608
:1024C5006E5650020DF350600FD96EDA6ADECF03F7
:1024D500F0DDCF04F0CA0E056ECEEC09F036EF1232
:1024E500F0030E5918D8A47AEF12F07CEF12F0948D
:1024F500EF12F05550D8A482EF12F084EF12F09449
:10250500EF12F0010E546E080E566E70C003F07196
:10251500C004F0CA0E056ECEEC09F0010E556EA48E
:10252500EF12F0A4EF12F05650020DF350600FD9E0
:102535006EDA6ADECF03F0DDCF04F0CA0E056ECE8B
:10254500EC09F04B5009E1640E4A5CD8A0ADEF12DE
:10255500F0AFEF12F0B3EF12F0000E4B6E630E4AC0
:102565006ECE0E086E4AC001F04BC002F0000E049C
:102575006E0A0E036E3EEC0AF00150300FEDEC07CB
:10258500F0CF0E086E4AC001F04BC002F0000E04F9
:102595006E0A0E036E9CEC09F00150300FEDEC074E
:1025A500F05450D8B4D9EF12F0DBEF12F0F8EF1277
:1025B500F050C011F051C012F04EC013F04FC014CE
:1025C500F04CC015F04DC016F05650020DF350609A
:1025D5000FD96EDA6ADECF17F0DDCF18F04AC019D1
:1025E500F04BC01AF06CEC0EF0546A1200AD0E03FD
:1025F5006E2F0E046E800E056ECEEC09F05AC00AE1
:10260500F05BC00BF00AEC10F0020E5918D8A40EBE
:10261500EF13F010EF13F023EF13F05A4A5B2A5B28
:102625005009E1040E5A5CD8A01BEF13F01DEF13FF
:10263500F031EF14F0000E5B6E010E5A6E31EF149F
:10264500F05904D8A429EF13F02BEF13F080EF1302
:10265500F066EF13F0444A452A455009E1180E4447
:102665005CD8A038EF13F03AEF13F031EF14F00017
:102675000E456E000E446E31EF14F0424A432A4374
:102685005009E13C0E425CD8A04BEF13F04DEF131F
:10269500F031EF14F0000E436E000E426E31EF1470
:1026A500F0404A412A415009E13C0E405CD8A05E09
:1026B500EF13F060EF13F031EF14F0000E416E00F0
:1026C5000E406E31EF14F05AC010F05BC011F011DE
:1026D50050000AD8B471EF13F031EF14F010500127
:1026E5000AD8B42DEF13F0030AD8B440EF13F00164
:1026F5000AD8B453EF13F031EF14F00B0E5918D874
:10270500A487EF13F089EF13F01DEF14F044C00117
:10271500F045C002F0000E046E0A0E036E9CEC0933
:10272500F001C010F002C011F044C001F045C00234
:10273500F0000E046E0A0E036E3EEC0AF00138F04E
:102745000B1010086E020E22EC08F042C001F04397
:10275500C002F0000E046E0A0E036E9CEC09F00137
:10276500C010F002C011F042C001F043C002F000F9
:102775000E046E0A0E036E3EEC0AF00138F00B10E3
:1027850010086E010E22EC08F040C001F041C002B5
:10279500F0000E046E0A0E036E9CEC09F001C010E9
:1027A500F002C011F040C001F041C002F0000E047B
:1027B5006E0A0E036E3EEC0AF00138F00B1010089D
:1027C5006E000E22EC08F0A00E036E2F0E046E8034
:1027D5000E056ECEEC09F01D0E036E2F0E046EC0B5
:1027E5000E056ECEEC09F0400E126E420E136E0F02
:1027F5000E146E000E156E1206000E135A145A159D
:102805005A12280AE1132808E1142806E11528D8E8
:10281500A40FEF14F011EF14F0FEEF13F0576A0058
:102825000E5B6E010E5A6E000E016E010E96EC08DF
:10283500F031EF14F00C0E5918D8A424EF14F0263B
:10284500EF14F031EF14F0000E5B6E010E5A6E01BD
:102855000E576E000E016E010E96EC08F012005236
:1028650050D8A438EF14F03AEF14F04AEF14F0BA48
:102875000E036E2F0E046E800E056ECEEC09F082EF
:102885000E036E2F0E046EC00E056ECEEC09F059C8
:1028950004D8A450EF14F052EF14F099EF14F0009F
:1028A5000E016E010E96EC08F05250D8B45DEF148F
:1028B500F05FEF14F062EF14F0520663EF14F0527C
:1028C5006ADC0E036E2F0E046E800E056ECEEC09CB
:1028D500F0D90E036E2F0E046EC00E056ECEEC09F8
:1028E500F05250D8B479EF14F07BEF14F09FEF1548
:1028F500F05250020DF350720FD96EDA6ADECF0333
:10290500F0DDCF04F0830E056ECEEC09F0525002D7
:102915000DF350740FD96EDA6ADECF03F0DDCF0404
:10292500F0C30E056ECEEC09F09FEF15F0020E59BF
:1029350018D8A4A0EF14F0A2EF14F0EAEF14F000F9
:102945000E016E010E96EC08F0030E5260ADEF1409
:10295500F0AFEF14F0B2EF14F0522AB4EF14F00315
:102965000E526EDC0E036E2F0E046EC00E056ECE7B
:10297500EC09F0D90E036E2F0E046E800E056ECE97
:10298500EC09F05250D8B4CAEF14F0CCEF14F09F14
:10299500EF15F05250020DF350700FD96EDA6ADE62
:1029A500CF03F0DDCF04F0830E056ECEEC09F052B7
:1029B50050020DF350720FD96EDA6ADECF03F0DDE7
:1029C500CF04F0C30E056ECEEC09F09FEF15F00BAA
:1029D5000E5918D8A4F1EF14F0F3EF14F09FEF158A
:1029E500F0000E016E010E96EC08F08BEF15F0026B
:1029F5000E576E9EEF15F0040E576E9EEF15F005FF
:102A05000E576E9EEF15F0020E54EC08F0386E016D
:102A15000E54EC08F0396E000E54EC08F03A6E389E
:102A2500AC17EF15F019EF15F03BEF15F038C007AF
:102A3500F0073A0F0E0716010E07160750446E45AC
:102A45006A44C001F045C002F0000E046E0A0E0390
:102A55006E41EC08F001C044F002C045F038C007F3
:102A6500F00F0E071607504426000E452247EF15B6
:102A7500F038C007F0073A0F0E0716030E071607C2
:102A850050446E456A23EF15F039C007F0073A0F39
:102A95000E07160F0E07160750426E436A42C00115
:102AA500F043C002F0000E046E0A0E036E41EC08FE
:102AB500F001C042F002C043F039C007F00F0E0725
:102AC5001607504226000E43223AC007F0073A0F78
:102AD5000E07160F0E07160750406E416A40C001DB
:102AE500F041C002F0000E046E0A0E036E41EC08C0
:102AF500F001C040F002C041F03AC007F00F0E07E8
:102B05001607504026000E4122030E576E9EEF1504
:102B1500F05250000AD8B4FAEF14F0010AD8B4FE06
:102B2500EF14F0030AD8B402EF15F0010AD8B40681
:102B3500EF15F09EEF15F0526A0C0E5918D8A4A6A1
:102B4500EF15F0A8EF15F0AFEF15F0526A576A00D0
:102B55000E016E010E96EC08F012001250800B1F4C
:102B65006E12501224266E11AEBBEF15F0BDEF1597
:102B7500F0BEEF15F026802650D8B4C4EF15F0C688
:102B8500EF15F0DAEF15F02628D8A4CCEF15F0CE26
:102B9500EF15F0D6EF15F0000E0F6E000E106E005B
:102BA5000E116E000E126E118E126AE2EF15F00014
:102BB5000E0F6E000E106E000E116E000E126E16C8
:102BC50050800B1F1A16501624276E15AEEDEF1503
:102BD500F0EFEF15F0F0EF15F027802750D8B4F699
:102BE500EF15F0F8EF15F00CEF16F02728D8A4FE36
:102BF500EF15F000EF16F008EF16F0000E136E005B
:102C05000E146E000E156E000E166E158E166A14D5
:102C1500EF16F0000E136E000E146E000E156E000A
:102C25000E166E1350141015101610D8A41DEF169D
:102C3500F01FEF16F037EF16F0000E0F6E000E10B6
:102C45006E000E116E000E126E800E11127F0E12A6
:102C5500121F5012120FC00FF010C010F011C0114A
:102C6500F012C012F077EF17F02650D8A43DEF16FA
:102C7500F03FEF16F049EF16F0000E0F6E000E1044
:102C85006E000E116E000E126E77EF17F0275026AC
:102C9500C017F0186A175E000E185A7F0E17242009
:102CA5006E000E1820216E0FC01BF010C01CF01115
:102CB500C01DF012C01EF0000E0F6E000E106E004B
:102CC5000E116E000E126E000E226E000E236E00A7
:102CD5000E246E000E256E276AA9EF16F02750D830
:102CE500B477EF16F079EF16F090EF16F0D8901B49
:102CF500361C361D361E36D8900F36103611361254
:102D05003625AE88EF16F08AEF16F08BEF16F00F2A
:102D150080D890223623362436253613501B5C1472
:102D2500501C5815501D5816501E58D8A09DEF160A
:102D3500F09FEF16F0A8EF16F0258C13501B5E14CC
:102D4500501C5A15501D5A16501E5A272A190E275F
:102D550064AFEF16F0B1EF16F071EF16F01B501CD3
:102D6500101D101E10D8B4BAEF16F0BCEF16F0D433
:102D7500EF16F02280D4EF16F0D8900F36103611EA
:102D850036123625AEC9EF16F0CBEF16F0CCEF169E
:102D9500F00F80D89022362336243625362006D8E3
:102DA500A0210611AED9EF16F0DBEF16F0BFEF1636
:102DB500F0276A25AEE1EF16F0E3EF16F007EF17FF
:102DC500F0FF0E2214176EFF0E2314186EFF0E244B
:102DD50014196E7F0E25141A6E1750181019101A33
:102DE50010D8B4F8EF16F0FAEF16F0FEEF16F00172
:102DF5000E276E07EF17F00FA003EF17F005EF177B
:102E0500F007EF17F0FAEF16F02750D8B40DEF17CB
:102E1500F00FEF17F033EF17F0010E0F26000E102D
:102E2500221122122212A01AEF17F01CEF17F0330D
:102E3500EF17F00FC017F010C018F011C019F012FD
:102E4500C01AF01A341A3219321832173217C00F55
:102E5500F018C010F019C011F01AC012F0204A2164
:102E65002A21BE3EEF17F0215008E12028D8A03EC8
:102E7500EF17F040EF17F04BEF17F0000E216E2023
:102E850068000E0F6E000E106E000E116E000E1211
:102E95006E21BE58EF17F0215006E12004D8B05638
:102EA500EF17F058EF17F065EF17F0000E216E00E1
:102EB5000E206E000E0F6E000E106E000E116E00CD
:102EC5000E126E1F6A20C026F026A06CEF17F06E5A
:102ED500EF17F071EF17F0118E72EF17F0119ED802
:102EE500902630126E2BEF16F01200000A4E4F207E
:102EF5004C4F475320544F20444F574E4C4F41445D
:102F05000A0A0D000A2320202054494D452020207F
:102F150045562053500A0D00202020205355434389
:102F250045535346554C4C590021214C4F4753208E
:102F3500434C45415245442121004C4F47532020E5
:102F4500444F574E4C4F41444544002320202054C4
:102F5500494D4520202045562053500020205449F6
:102F65004D4520202047454152205350005245549D
:102F75002D3E204D41494E204D454E5500202020E7
:102F8500444F574E4C4F4144204C4F470020202181
:102F9500214E4F204C4F475321210054494D452088
:102FA50055504441544544002020202048483A4D7E
:102FB5004D3A5353002D3E2056494557204C4F4717
:102FC50000434C454152204C4F4700534554205433
:102FD500494D45002020002D3E004320004731008B
:102FE500473200473300473400473500474E004F0E
:062FF5004E0047520000EF
:042FFC006BEF09F07E
:020000040020DA
:08000000FFFFFFFFFFFFFFFF00
:020000040030CA
:0E000000FF071F1FFF8285FF0FC00FE00F409C
:00000001FF
